S019000074726166666963206C69676874207379732E7372656375
S11300000C942A000C941A010C943C000C943C00AF
S11300100C943C000C943C000C943C000C943C006C
S11300200C943C000C943C000C943C000C943C005C
S11300300C943C000C943C000C943C000C943C004C
S11300400C943C000C943C000C943C000C943C003C
S11300500C943C0011241FBECFE5D8E0DEBFCDBF19
S113006020E0A0E6B0E001C01D92A236B207E1F79D
S11300700E9413010C9441030C94000040E064E4DA
S113008082E00E94840141E061E480E00E948401F6
S113009041E061E481E00E94840141E061E482E0A6
S11300A00E94840141E062E480E00E94840141E016
S11300B062E481E00E94840141E062E482E00E9403
S11300C084010895789485B7836085BF8BB7806475
S11300D08BBF13BE12BE83B7816083BF60E081E42F
S11300E00E94FF0062E082E40E94FF0020E030E012
S11300F008C008B600FEFDCF88B7816088BF2F5FB7
S11301003F4F2C348CE43807A0F312BE60E081E446
S11301100E94060162E082E40E940601C0E0D0E091
S113012019C061E081E40E940D0161E082E40E9453
S11301300D0120E030E008C008B600FEFDCF88B70E
S1130140816088BF2F5F3F4F283E83E03807A0F3CC
S113015012BE2196C431D10520F312BE61E081E4C0
S11301600E94060161E082E40E94060162E081E4EB
S11301700E94FF0060E082E40E94FF0020E030E083
S113018008C008B600FEFDCF88B7816088BF2F5F26
S11301903F4F2C348CE43807A0F312BE62E081E4B4
S11301A00E94060160E082E40E940601C0E0D0E003
S11301B019C061E081E40E940D0161E082E40E94C3
S11301C00D0120E030E008C008B600FEFDCF88B77E
S11301D0816088BF2F5F3F4F283E83E03807A0F33C
S11301E012BE2196C431D10520F312BE61E081E430
S11301F00E94060161E082E40E9406016FCF982FFD
S1130200862F41E0692F0E944E020895982F862F71
S113021040E0692F0E944E020895982F862F692F7F
S11302200E940F0208950E943E000E94620080E036
S113023090E008951F920F920FB60F9211242F93FE
S11302403F934F935F936F937F938F939F93AF935A
S1130250BF93CF93DF93EF93FF9340E650E061E4C5
S113026080E00E94D9028091600090916100813009
S1130270910591F1892B81F561E081E40E940601E9
S113028062E081E40E94060161E082E40E940601CA
S113029060E082E40E940601C0E0D0E019C061E0A1
S11302A081E40E940D0161E082E40E940D0120E0DE
S11302B030E008C008B600FEFDCF88B7816088BF73
S11302C02F5F3F4F283E83E03807A4F312BE2196E8
S11302D0C431D10524F312BE8BB78F7B8BBF0E9430
S11302E06200FF91EF91DF91CF91BF91AF919F9108
S11302F08F917F916F915F914F913F912F910F90CB
S11303000FBE0F901F901895623459F118F46134A0
S113031041F00895633409F444C0643409F460C0BE
S1130320089541110EC04AB321E030E0B90102C082
S1130330660F771F8A95E2F7CB01809584238ABBE9
S11303400895413009F06AC04AB321E030E0B901B0
S113035002C0660F771F8A95E2F7CB01842B8ABB14
S1130360089541110EC047B321E030E0B90102C045
S1130370660F771F8A95E2F7CB018095842387BBAC
S11303800895413009F04AC047B321E030E0B90193
S113039002C0660F771F8A95E2F7CB01842B87BBD7
S11303A0089541110EC044B321E030E0B90102C008
S11303B0660F771F8A95E2F7CB018095842384BB6F
S11303C00895413059F544B321E030E0B90102C049
S11303D0660F771F8A95E2F7CB01842B84BB0895BF
S11303E041110EC041B321E030E0B90102C0660FF3
S11303F0771F8A95E2F7CB018095842381BB08950A
S1130400413061F441B321E030E0B90102C0660F2C
S1130410771F8A95E2F7CB01842B81BB0895623460
S1130420B1F018F4613431F008956334E9F06434C0
S113043041F108954BB321E030E0B90102C0660FE9
S1130440771F8A95E2F7CB0184278BBB089548B3C5
S113045021E030E0B90102C0660F771F8A95E2F708
S1130460CB01842788BB089545B321E030E0B9016E
S113047002C0660F771F8A95E2F7CB01842785BBFC
S1130480089542B321E030E0B90102C0660F771F3E
S11304908A95E2F7CB01842782BB0895623459F12F
S11304A018F4613441F00895633409F444C06434A9
S11304B009F460C0089541110EC04BB321E030E04F
S11304C0B90102C0660F771F8A95E2F7CB018095C8
S11304D084238BBB0895413009F06AC04BB321E0FB
S11304E030E0B90102C0660F771F8A95E2F7CB01AD
S11304F0842B8BBB089541110EC048B321E030E03A
S1130500B90102C0660F771F8A95E2F7CB01809587
S1130510842388BB0895413009F04AC048B321E0E0
S113052030E0B90102C0660F771F8A95E2F7CB016C
S1130530842B88BB089541110EC045B321E030E0FF
S1130540B90102C0660F771F8A95E2F7CB01809547
S1130550842385BB0895413059F545B321E030E04B
S1130560B90102C0660F771F8A95E2F7CB01842B8D
S113057085BB089541110EC042B321E030E0B901BA
S113058002C0660F771F8A95E2F7CB01809584231A
S113059082BB0895413061F442B321E030E0B901F7
S11305A002C0660F771F8A95E2F7CB01842B82BBCA
S11305B00895623409F118F4613439F0089563340C
S11305C091F1643409F446C0089599B321E030E010
S11305D0B901082E02C0660F771F0A94E2F7292F8B
S11305E030E026233723B90102C0759567958A95B3
S11305F0E2F7FA016083089596B321E030E0B9018F
S1130600082E02C0660F771F0A94E2F7292F30E004
S113061026233723B90102C0759567958A95E2F7B9
S1130620FA016083089593B321E030E0B901082E04
S113063002C0660F771F0A94E2F7292F30E02623C1
S11306403723B90102C0759567958A95E2F7FA01D7
S11306506083089590B321E030E0B901082E02C010
S1130660660F771F0A94E2F7292F30E026233723F9
S1130670B90102C0759567958A95E2F7FA0160831E
S10906800895F894FFCF79
S9030000FC
